{
  "_format": "hh-sol-artifact-1",
  "contractName": "mortgagefeetickets",
  "sourceName": "contracts/protocol/mortgagefeetickets.sol",
  "abi": [
    {
      "inputs": [
        {
          "internalType": "string",
          "name": "name",
          "type": "string"
        },
        {
          "internalType": "string",
          "name": "symbol",
          "type": "string"
        },
        {
          "internalType": "string",
          "name": "baseTokenURI",
          "type": "string"
        }
      ],
      "stateMutability": "nonpayable",
      "type": "constructor"
    },
    {
      "anonymous": false,
      "inputs": [
        {
          "indexed": true,
          "internalType": "address",
          "name": "owner",
          "type": "address"
        },
        {
          "indexed": true,
          "internalType": "address",
          "name": "approved",
          "type": "address"
        },
        {
          "indexed": true,
          "internalType": "uint256",
          "name": "tokenId",
          "type": "uint256"
        }
      ],
      "name": "Approval",
      "type": "event"
    },
    {
      "anonymous": false,
      "inputs": [
        {
          "indexed": true,
          "internalType": "address",
          "name": "owner",
          "type": "address"
        },
        {
          "indexed": true,
          "internalType": "address",
          "name": "operator",
          "type": "address"
        },
        {
          "indexed": false,
          "internalType": "bool",
          "name": "approved",
          "type": "bool"
        }
      ],
      "name": "ApprovalForAll",
      "type": "event"
    },
    {
      "anonymous": false,
      "inputs": [
        {
          "indexed": false,
          "internalType": "address",
          "name": "account",
          "type": "address"
        }
      ],
      "name": "Paused",
      "type": "event"
    },
    {
      "anonymous": false,
      "inputs": [
        {
          "indexed": true,
          "internalType": "bytes32",
          "name": "role",
          "type": "bytes32"
        },
        {
          "indexed": true,
          "internalType": "bytes32",
          "name": "previousAdminRole",
          "type": "bytes32"
        },
        {
          "indexed": true,
          "internalType": "bytes32",
          "name": "newAdminRole",
          "type": "bytes32"
        }
      ],
      "name": "RoleAdminChanged",
      "type": "event"
    },
    {
      "anonymous": false,
      "inputs": [
        {
          "indexed": true,
          "internalType": "bytes32",
          "name": "role",
          "type": "bytes32"
        },
        {
          "indexed": true,
          "internalType": "address",
          "name": "account",
          "type": "address"
        },
        {
          "indexed": true,
          "internalType": "address",
          "name": "sender",
          "type": "address"
        }
      ],
      "name": "RoleGranted",
      "type": "event"
    },
    {
      "anonymous": false,
      "inputs": [
        {
          "indexed": true,
          "internalType": "bytes32",
          "name": "role",
          "type": "bytes32"
        },
        {
          "indexed": true,
          "internalType": "address",
          "name": "account",
          "type": "address"
        },
        {
          "indexed": true,
          "internalType": "address",
          "name": "sender",
          "type": "address"
        }
      ],
      "name": "RoleRevoked",
      "type": "event"
    },
    {
      "anonymous": false,
      "inputs": [
        {
          "indexed": true,
          "internalType": "address",
          "name": "from",
          "type": "address"
        },
        {
          "indexed": true,
          "internalType": "address",
          "name": "to",
          "type": "address"
        },
        {
          "indexed": true,
          "internalType": "uint256",
          "name": "tokenId",
          "type": "uint256"
        }
      ],
      "name": "Transfer",
      "type": "event"
    },
    {
      "anonymous": false,
      "inputs": [
        {
          "indexed": false,
          "internalType": "address",
          "name": "account",
          "type": "address"
        }
      ],
      "name": "Unpaused",
      "type": "event"
    },
    {
      "inputs": [],
      "name": "DEFAULT_ADMIN_ROLE",
      "outputs": [
        {
          "internalType": "bytes32",
          "name": "",
          "type": "bytes32"
        }
      ],
      "stateMutability": "view",
      "type": "function"
    },
    {
      "inputs": [],
      "name": "MINTER_ROLE",
      "outputs": [
        {
          "internalType": "bytes32",
          "name": "",
          "type": "bytes32"
        }
      ],
      "stateMutability": "view",
      "type": "function"
    },
    {
      "inputs": [],
      "name": "PAUSER_ROLE",
      "outputs": [
        {
          "internalType": "bytes32",
          "name": "",
          "type": "bytes32"
        }
      ],
      "stateMutability": "view",
      "type": "function"
    },
    {
      "inputs": [
        {
          "internalType": "address",
          "name": "to",
          "type": "address"
        },
        {
          "internalType": "uint256",
          "name": "tokenId",
          "type": "uint256"
        }
      ],
      "name": "approve",
      "outputs": [],
      "stateMutability": "nonpayable",
      "type": "function"
    },
    {
      "inputs": [
        {
          "internalType": "address",
          "name": "owner",
          "type": "address"
        }
      ],
      "name": "balanceOf",
      "outputs": [
        {
          "internalType": "uint256",
          "name": "",
          "type": "uint256"
        }
      ],
      "stateMutability": "view",
      "type": "function"
    },
    {
      "inputs": [
        {
          "internalType": "uint256",
          "name": "tokenId",
          "type": "uint256"
        }
      ],
      "name": "burn",
      "outputs": [],
      "stateMutability": "nonpayable",
      "type": "function"
    },
    {
      "inputs": [
        {
          "internalType": "uint256",
          "name": "",
          "type": "uint256"
        }
      ],
      "name": "experation",
      "outputs": [
        {
          "internalType": "uint256",
          "name": "",
          "type": "uint256"
        }
      ],
      "stateMutability": "view",
      "type": "function"
    },
    {
      "inputs": [
        {
          "internalType": "uint256",
          "name": "tokenId",
          "type": "uint256"
        }
      ],
      "name": "getApproved",
      "outputs": [
        {
          "internalType": "address",
          "name": "",
          "type": "address"
        }
      ],
      "stateMutability": "view",
      "type": "function"
    },
    {
      "inputs": [
        {
          "internalType": "bytes32",
          "name": "role",
          "type": "bytes32"
        }
      ],
      "name": "getRoleAdmin",
      "outputs": [
        {
          "internalType": "bytes32",
          "name": "",
          "type": "bytes32"
        }
      ],
      "stateMutability": "view",
      "type": "function"
    },
    {
      "inputs": [
        {
          "internalType": "bytes32",
          "name": "role",
          "type": "bytes32"
        },
        {
          "internalType": "uint256",
          "name": "index",
          "type": "uint256"
        }
      ],
      "name": "getRoleMember",
      "outputs": [
        {
          "internalType": "address",
          "name": "",
          "type": "address"
        }
      ],
      "stateMutability": "view",
      "type": "function"
    },
    {
      "inputs": [
        {
          "internalType": "bytes32",
          "name": "role",
          "type": "bytes32"
        }
      ],
      "name": "getRoleMemberCount",
      "outputs": [
        {
          "internalType": "uint256",
          "name": "",
          "type": "uint256"
        }
      ],
      "stateMutability": "view",
      "type": "function"
    },
    {
      "inputs": [
        {
          "internalType": "bytes32",
          "name": "role",
          "type": "bytes32"
        },
        {
          "internalType": "address",
          "name": "account",
          "type": "address"
        }
      ],
      "name": "grantRole",
      "outputs": [],
      "stateMutability": "nonpayable",
      "type": "function"
    },
    {
      "inputs": [
        {
          "internalType": "bytes32",
          "name": "role",
          "type": "bytes32"
        },
        {
          "internalType": "address",
          "name": "account",
          "type": "address"
        }
      ],
      "name": "hasRole",
      "outputs": [
        {
          "internalType": "bool",
          "name": "",
          "type": "bool"
        }
      ],
      "stateMutability": "view",
      "type": "function"
    },
    {
      "inputs": [
        {
          "internalType": "address",
          "name": "owner",
          "type": "address"
        },
        {
          "internalType": "address",
          "name": "operator",
          "type": "address"
        }
      ],
      "name": "isApprovedForAll",
      "outputs": [
        {
          "internalType": "bool",
          "name": "",
          "type": "bool"
        }
      ],
      "stateMutability": "view",
      "type": "function"
    },
    {
      "inputs": [
        {
          "internalType": "address",
          "name": "to",
          "type": "address"
        },
        {
          "internalType": "uint256",
          "name": "_size",
          "type": "uint256"
        }
      ],
      "name": "mint",
      "outputs": [],
      "stateMutability": "nonpayable",
      "type": "function"
    },
    {
      "inputs": [
        {
          "internalType": "bytes[]",
          "name": "data",
          "type": "bytes[]"
        }
      ],
      "name": "multicall",
      "outputs": [
        {
          "internalType": "bytes[]",
          "name": "results",
          "type": "bytes[]"
        }
      ],
      "stateMutability": "nonpayable",
      "type": "function"
    },
    {
      "inputs": [],
      "name": "name",
      "outputs": [
        {
          "internalType": "string",
          "name": "",
          "type": "string"
        }
      ],
      "stateMutability": "view",
      "type": "function"
    },
    {
      "inputs": [
        {
          "internalType": "uint256",
          "name": "tokenId",
          "type": "uint256"
        }
      ],
      "name": "ownerOf",
      "outputs": [
        {
          "internalType": "address",
          "name": "",
          "type": "address"
        }
      ],
      "stateMutability": "view",
      "type": "function"
    },
    {
      "inputs": [],
      "name": "pause",
      "outputs": [],
      "stateMutability": "nonpayable",
      "type": "function"
    },
    {
      "inputs": [],
      "name": "paused",
      "outputs": [
        {
          "internalType": "bool",
          "name": "",
          "type": "bool"
        }
      ],
      "stateMutability": "view",
      "type": "function"
    },
    {
      "inputs": [
        {
          "internalType": "bytes32",
          "name": "role",
          "type": "bytes32"
        },
        {
          "internalType": "address",
          "name": "account",
          "type": "address"
        }
      ],
      "name": "renounceRole",
      "outputs": [],
      "stateMutability": "nonpayable",
      "type": "function"
    },
    {
      "inputs": [
        {
          "internalType": "bytes32",
          "name": "role",
          "type": "bytes32"
        },
        {
          "internalType": "address",
          "name": "account",
          "type": "address"
        }
      ],
      "name": "revokeRole",
      "outputs": [],
      "stateMutability": "nonpayable",
      "type": "function"
    },
    {
      "inputs": [
        {
          "internalType": "address",
          "name": "from",
          "type": "address"
        },
        {
          "internalType": "address",
          "name": "to",
          "type": "address"
        },
        {
          "internalType": "uint256",
          "name": "tokenId",
          "type": "uint256"
        }
      ],
      "name": "safeTransferFrom",
      "outputs": [],
      "stateMutability": "nonpayable",
      "type": "function"
    },
    {
      "inputs": [
        {
          "internalType": "address",
          "name": "from",
          "type": "address"
        },
        {
          "internalType": "address",
          "name": "to",
          "type": "address"
        },
        {
          "internalType": "uint256",
          "name": "tokenId",
          "type": "uint256"
        },
        {
          "internalType": "bytes",
          "name": "data",
          "type": "bytes"
        }
      ],
      "name": "safeTransferFrom",
      "outputs": [],
      "stateMutability": "nonpayable",
      "type": "function"
    },
    {
      "inputs": [
        {
          "internalType": "address",
          "name": "operator",
          "type": "address"
        },
        {
          "internalType": "bool",
          "name": "approved",
          "type": "bool"
        }
      ],
      "name": "setApprovalForAll",
      "outputs": [],
      "stateMutability": "nonpayable",
      "type": "function"
    },
    {
      "inputs": [
        {
          "internalType": "uint256",
          "name": "",
          "type": "uint256"
        }
      ],
      "name": "size",
      "outputs": [
        {
          "internalType": "uint256",
          "name": "",
          "type": "uint256"
        }
      ],
      "stateMutability": "view",
      "type": "function"
    },
    {
      "inputs": [
        {
          "internalType": "bytes4",
          "name": "interfaceId",
          "type": "bytes4"
        }
      ],
      "name": "supportsInterface",
      "outputs": [
        {
          "internalType": "bool",
          "name": "",
          "type": "bool"
        }
      ],
      "stateMutability": "view",
      "type": "function"
    },
    {
      "inputs": [],
      "name": "symbol",
      "outputs": [
        {
          "internalType": "string",
          "name": "",
          "type": "string"
        }
      ],
      "stateMutability": "view",
      "type": "function"
    },
    {
      "inputs": [
        {
          "internalType": "uint256",
          "name": "_nftID",
          "type": "uint256"
        }
      ],
      "name": "ticketInfo",
      "outputs": [
        {
          "internalType": "uint256",
          "name": "_experation",
          "type": "uint256"
        },
        {
          "internalType": "uint256",
          "name": "_size",
          "type": "uint256"
        }
      ],
      "stateMutability": "view",
      "type": "function"
    },
    {
      "inputs": [
        {
          "internalType": "uint256",
          "name": "index",
          "type": "uint256"
        }
      ],
      "name": "tokenByIndex",
      "outputs": [
        {
          "internalType": "uint256",
          "name": "",
          "type": "uint256"
        }
      ],
      "stateMutability": "view",
      "type": "function"
    },
    {
      "inputs": [
        {
          "internalType": "address",
          "name": "owner",
          "type": "address"
        },
        {
          "internalType": "uint256",
          "name": "index",
          "type": "uint256"
        }
      ],
      "name": "tokenOfOwnerByIndex",
      "outputs": [
        {
          "internalType": "uint256",
          "name": "",
          "type": "uint256"
        }
      ],
      "stateMutability": "view",
      "type": "function"
    },
    {
      "inputs": [
        {
          "internalType": "uint256",
          "name": "tokenId",
          "type": "uint256"
        }
      ],
      "name": "tokenURI",
      "outputs": [
        {
          "internalType": "string",
          "name": "",
          "type": "string"
        }
      ],
      "stateMutability": "view",
      "type": "function"
    },
    {
      "inputs": [],
      "name": "totalSupply",
      "outputs": [
        {
          "internalType": "uint256",
          "name": "",
          "type": "uint256"
        }
      ],
      "stateMutability": "view",
      "type": "function"
    },
    {
      "inputs": [
        {
          "internalType": "address",
          "name": "from",
          "type": "address"
        },
        {
          "internalType": "address",
          "name": "to",
          "type": "address"
        },
        {
          "internalType": "uint256",
          "name": "tokenId",
          "type": "uint256"
        }
      ],
      "name": "transferFrom",
      "outputs": [],
      "stateMutability": "nonpayable",
      "type": "function"
    },
    {
      "inputs": [],
      "name": "unpause",
      "outputs": [],
      "stateMutability": "nonpayable",
      "type": "function"
    },
    {
      "inputs": [
        {
          "internalType": "uint256",
          "name": "_nftID",
          "type": "uint256"
        },
        {
          "internalType": "uint256",
          "name": "_size",
          "type": "uint256"
        }
      ],
      "name": "use",
      "outputs": [
        {
          "internalType": "uint256",
          "name": "",
          "type": "uint256"
        }
      ],
      "stateMutability": "nonpayable",
      "type": "function"
    }
  ],
  "bytecode": "0x60806040523480156200001157600080fd5b5060405162002f9338038062002f93833981016040819052620000349162000307565b8282600262000044838262000426565b50600362000053828262000426565b5050600c805460ff191690555060106200006e828262000426565b506200007c600033620000dd565b620000a87f9f2df0fed2c77648de5860a4cc508cd0818c85b8b8a1ab4ceeef8d981c8956a633620000dd565b620000d47f65d7a28e3265b37a6474929f336521b332c1681b933f6cb9f3376673440d862a33620000dd565b505050620004f2565b620000e98282620000ed565b5050565b6200010482826200013060201b62000e7f1760201c565b60008281526001602090815260409091206200012b91839062000f03620001d0821b17901c565b505050565b6000828152602081815260408083206001600160a01b038516845290915290205460ff16620000e9576000828152602081815260408083206001600160a01b03851684529091529020805460ff191660011790556200018c3390565b6001600160a01b0316816001600160a01b0316837f2f8788117e7eff1d82e926ec794901d17c78024a50270940304540a733656f0d60405160405180910390a45050565b6000620001e7836001600160a01b038416620001f0565b90505b92915050565b60008181526001830160205260408120546200023957508154600181810184556000848152602080822090930184905584548482528286019093526040902091909155620001ea565b506000620001ea565b634e487b7160e01b600052604160045260246000fd5b600082601f8301126200026a57600080fd5b81516001600160401b038082111562000287576200028762000242565b604051601f8301601f19908116603f01168101908282118183101715620002b257620002b262000242565b81604052838152602092508683858801011115620002cf57600080fd5b600091505b83821015620002f35785820183015181830184015290820190620002d4565b600093810190920192909252949350505050565b6000806000606084860312156200031d57600080fd5b83516001600160401b03808211156200033557600080fd5b620003438783880162000258565b945060208601519150808211156200035a57600080fd5b620003688783880162000258565b935060408601519150808211156200037f57600080fd5b506200038e8682870162000258565b9150509250925092565b600181811c90821680620003ad57607f821691505b602082108103620003ce57634e487b7160e01b600052602260045260246000fd5b50919050565b601f8211156200012b57600081815260208120601f850160051c81016020861015620003fd5750805b601f850160051c820191505b818110156200041e5782815560010162000409565b505050505050565b81516001600160401b0381111562000442576200044262000242565b6200045a8162000453845462000398565b84620003d4565b602080601f831160018114620004925760008415620004795750858301515b600019600386901b1c1916600185901b1785556200041e565b600085815260208120601f198616915b82811015620004c357888601518255948401946001909101908401620004a2565b5085821015620004e25787850151600019600388901b60f8161c191681555b5050505050600190811b01905550565b612a9180620005026000396000f3fe608060405234801561001057600080fd5b50600436106101bc5760003560e01c80638456cb59116100f55780638456cb591461032957806385edea13146103315780639010d07c1461035157806390a0bddf1461036457806391d148541461038457806395d89b41146103975780639c806fae1461039f578063a217fddf146103b2578063a22cb465146103ba578063ac9650d8146103cd578063b88d4fde146103ed578063c87b56dd14610400578063ca15c87314610413578063d539139314610426578063d547741f1461043b578063e63ab1e91461044e578063e985e9c514610463578063fa7130831461047657600080fd5b806301ffc9a7146101c157806306fdde03146101e9578063081812fc146101fe578063095ea7b31461021e57806318160ddd1461023357806323b872dd14610245578063248a9ca3146102585780632f2ff15d1461026b5780632f745c591461027e57806336568abe146102915780633f4ba83a146102a457806340c10f19146102ac57806342842e0e146102bf57806342966c68146102d25780634f6ccce7146102e55780635c975abb146102f85780636352211e1461030357806370a0823114610316575b600080fd5b6101d46101cf366004612218565b6104b8565b60405190151581526020015b60405180910390f35b6101f16104c9565b6040516101e09190612285565b61021161020c366004612298565b61055b565b6040516101e091906122b1565b61023161022c3660046122e1565b610582565b005b600a545b6040519081526020016101e0565b61023161025336600461230b565b61069c565b610237610266366004612298565b6106ce565b610231610279366004612347565b6106e3565b61023761028c3660046122e1565b6106ff565b61023161029f366004612347565b610795565b610231610813565b6102316102ba3660046122e1565b610897565b6102316102cd36600461230b565b610934565b6102316102e0366004612298565b61094f565b6102376102f3366004612298565b610980565b600c5460ff166101d4565b610211610311366004612298565b610a13565b610237610324366004612373565b610a47565b610231610acd565b61023761033f366004612298565b600f6020526000908152604090205481565b61021161035f36600461238e565b610b4d565b610237610372366004612298565b600e6020526000908152604090205481565b6101d4610392366004612347565b610b6c565b6101f1610b95565b6102376103ad36600461238e565b610ba4565b610237600081565b6102316103c83660046123b0565b610c81565b6103e06103db3660046123ec565b610c8c565b6040516101e09190612460565b6102316103fb3660046124d8565b610d80565b6101f161040e366004612298565b610db8565b610237610421366004612298565b610e1e565b6102376000805160206129fc83398151915281565b610231610449366004612347565b610e35565b6102376000805160206129b583398151915281565b6101d46104713660046125b3565b610e51565b6104a3610484366004612298565b6000908152600e6020908152604080832054600f909252909120549091565b604080519283526020830191909152016101e0565b60006104c382610f18565b92915050565b6060600280546104d8906125dd565b80601f0160208091040260200160405190810160405280929190818152602001828054610504906125dd565b80156105515780601f1061052657610100808354040283529160200191610551565b820191906000526020600020905b81548152906001019060200180831161053457829003601f168201915b5050505050905090565b600061056682610f3d565b506000908152600660205260409020546001600160a01b031690565b600061058d82610a13565b9050806001600160a01b0316836001600160a01b0316036105ff5760405162461bcd60e51b815260206004820152602160248201527f4552433732313a20617070726f76616c20746f2063757272656e74206f776e656044820152603960f91b60648201526084015b60405180910390fd5b336001600160a01b038216148061061b575061061b8133610e51565b61068d5760405162461bcd60e51b815260206004820152603d60248201527f4552433732313a20617070726f76652063616c6c6572206973206e6f7420746f60448201527f6b656e206f776e6572206f7220617070726f76656420666f7220616c6c00000060648201526084016105f6565b6106978383610f62565b505050565b6106a7335b82610fd0565b6106c35760405162461bcd60e51b81526004016105f690612617565b61069783838361102f565b60009081526020819052604090206001015490565b6106ec826106ce565b6106f58161118e565b6106978383611198565b600061070a83610a47565b821061076c5760405162461bcd60e51b815260206004820152602b60248201527f455243373231456e756d657261626c653a206f776e657220696e646578206f7560448201526a74206f6620626f756e647360a81b60648201526084016105f6565b506001600160a01b03919091166000908152600860209081526040808320938352929052205490565b6001600160a01b03811633146108055760405162461bcd60e51b815260206004820152602f60248201527f416363657373436f6e74726f6c3a2063616e206f6e6c792072656e6f756e636560448201526e103937b632b9903337b91039b2b63360891b60648201526084016105f6565b61080f82826111ba565b5050565b61082b6000805160206129b583398151915233610b6c565b61088d576040805162461bcd60e51b8152602060048201526024810191909152600080516020612a3c83398151915260448201527f6d75737420686176652070617573657220726f6c6520746f20756e706175736560648201526084016105f6565b6108956111dc565b565b6108af6000805160206129fc83398151915233610b6c565b6108cb5760405162461bcd60e51b81526004016105f690612664565b6108dd826108d8600d5490565b611228565b6108e84260b46126c5565b600e60006108f5600d5490565b81526020019081526020016000208190555080600f6000610915600d5490565b815260208101919091526040016000205561080f600d80546001019055565b61069783838360405180602001604052806000815250610d80565b610958336106a1565b6109745760405162461bcd60e51b81526004016105f690612617565b61097d81611331565b50565b600061098b600a5490565b82106109ee5760405162461bcd60e51b815260206004820152602c60248201527f455243373231456e756d657261626c653a20676c6f62616c20696e646578206f60448201526b7574206f6620626f756e647360a01b60648201526084016105f6565b600a8281548110610a0157610a016126d8565b90600052602060002001549050919050565b600080610a1f836113c2565b90506001600160a01b0381166104c35760405162461bcd60e51b81526004016105f6906126ee565b60006001600160a01b038216610ab15760405162461bcd60e51b815260206004820152602960248201527f4552433732313a2061646472657373207a65726f206973206e6f7420612076616044820152683634b21037bbb732b960b91b60648201526084016105f6565b506001600160a01b031660009081526005602052604090205490565b610ae56000805160206129b583398151915233610b6c565b610b455760405162461bcd60e51b815260206004820152603e6024820152600080516020612a3c83398151915260448201527f6d75737420686176652070617573657220726f6c6520746f207061757365000060648201526084016105f6565b6108956113dd565b6000828152600160205260408120610b65908361141a565b9392505050565b6000918252602082815260408084206001600160a01b0393909316845291905290205460ff1690565b6060600380546104d8906125dd565b6000610bbe6000805160206129fc83398151915233610b6c565b610bda5760405162461bcd60e51b81526004016105f690612664565b6000838152600e6020526040902054421015610c2f5760405162461bcd60e51b8152602060048201526014602482015273151a58dad95d081b9bdd081e595d081d985b1a5960621b60448201526064016105f6565b6000838152600f6020526040902054821115610c57576000838152600f602052604090205491505b6000838152600f602052604081208054849290610c75908490612720565b90915550919392505050565b61080f338383611426565b6060816001600160401b03811115610ca657610ca66124c2565b604051908082528060200260200182016040528015610cd957816020015b6060815260200190600190039081610cc45790505b50905060005b82811015610d7957610d4930858584818110610cfd57610cfd6126d8565b9050602002810190610d0f9190612733565b8080601f0160208091040260200160405190810160405280939291908181526020018383808284376000920191909152506114f092505050565b828281518110610d5b57610d5b6126d8565b60200260200101819052508080610d7190612780565b915050610cdf565b5092915050565b610d8a3383610fd0565b610da65760405162461bcd60e51b81526004016105f690612617565b610db284848484611515565b50505050565b6060610dc382610f3d565b6000610dcd611548565b90506000815111610ded5760405180602001604052806000815250610b65565b80610df784611557565b604051602001610e08929190612799565b6040516020818303038152906040529392505050565b60008181526001602052604081206104c3906115e9565b610e3e826106ce565b610e478161118e565b61069783836111ba565b6001600160a01b03918216600090815260076020908152604080832093909416825291909152205460ff1690565b610e898282610b6c565b61080f576000828152602081815260408083206001600160a01b03851684529091529020805460ff19166001179055610ebf3390565b6001600160a01b0316816001600160a01b0316837f2f8788117e7eff1d82e926ec794901d17c78024a50270940304540a733656f0d60405160405180910390a45050565b6000610b65836001600160a01b0384166115f3565b60006001600160e01b0319821663780e9d6360e01b14806104c357506104c382611642565b610f4681611682565b61097d5760405162461bcd60e51b81526004016105f6906126ee565b600081815260066020526040902080546001600160a01b0319166001600160a01b0384169081179091558190610f9782610a13565b6001600160a01b03167f8c5be1e5ebec7d5bd14f71427d1e84f3dd0314c0f7b2291e5b200ac8c7c3b92560405160405180910390a45050565b600080610fdc83610a13565b9050806001600160a01b0316846001600160a01b0316148061100357506110038185610e51565b806110275750836001600160a01b031661101c8461055b565b6001600160a01b0316145b949350505050565b826001600160a01b031661104282610a13565b6001600160a01b0316146110685760405162461bcd60e51b81526004016105f6906127c8565b6001600160a01b0382166110ca5760405162461bcd60e51b8152602060048201526024808201527f4552433732313a207472616e7366657220746f20746865207a65726f206164646044820152637265737360e01b60648201526084016105f6565b6110d7838383600161169f565b826001600160a01b03166110ea82610a13565b6001600160a01b0316146111105760405162461bcd60e51b81526004016105f6906127c8565b600081815260066020908152604080832080546001600160a01b03199081169091556001600160a01b038781168086526005855283862080546000190190559087168086528386208054600101905586865260049094528285208054909216841790915590518493600080516020612a1c83398151915291a4505050565b61097d81336116ab565b6111a28282610e7f565b60008281526001602052604090206106979082610f03565b6111c48282611704565b60008281526001602052604090206106979082611769565b6111e461177e565b600c805460ff191690557f5db9ee0a495bf2e6ff9c91a7834c1ba4fdd244a5e8aa4e537bd38aeae4b073aa335b60405161121e91906122b1565b60405180910390a1565b6001600160a01b03821661127e5760405162461bcd60e51b815260206004820181905260248201527f4552433732313a206d696e7420746f20746865207a65726f206164647265737360448201526064016105f6565b61128781611682565b156112a45760405162461bcd60e51b81526004016105f69061280d565b6112b260008383600161169f565b6112bb81611682565b156112d85760405162461bcd60e51b81526004016105f69061280d565b6001600160a01b038216600081815260056020908152604080832080546001019055848352600490915280822080546001600160a01b031916841790555183929190600080516020612a1c833981519152908290a45050565b600061133c82610a13565b905061134c81600084600161169f565b61135582610a13565b600083815260066020908152604080832080546001600160a01b03199081169091556001600160a01b038516808552600584528285208054600019019055878552600490935281842080549091169055519293508492600080516020612a1c833981519152908390a45050565b6000908152600460205260409020546001600160a01b031690565b6113e56117c7565b600c805460ff191660011790557f62e78cea01bee320cd4e420270b5ea74000d11b0c9f74754ebdbfc544b05a2586112113390565b6000610b65838361180d565b816001600160a01b0316836001600160a01b0316036114835760405162461bcd60e51b815260206004820152601960248201527822a9219b99189d1030b8383937bb32903a379031b0b63632b960391b60448201526064016105f6565b6001600160a01b03838116600081815260076020908152604080832094871680845294825291829020805460ff191686151590811790915591519182527f17307eab39ab6107e8899845ad3d59bd9653f200f220920489ca2b5937696c31910160405180910390a3505050565b6060610b6583836040518060600160405280602781526020016129d560279139611837565b61152084848461102f565b61152c848484846118af565b610db25760405162461bcd60e51b81526004016105f690612843565b6060601080546104d8906125dd565b60606000611564836119b7565b60010190506000816001600160401b03811115611583576115836124c2565b6040519080825280601f01601f1916602001820160405280156115ad576020820181803683370190505b5090508181016020015b600019016f181899199a1a9b1b9c1cb0b131b232b360811b600a86061a8153600a85049450846115b757509392505050565b60006104c3825490565b600081815260018301602052604081205461163a575081546001818101845560008481526020808220909301849055845484825282860190935260409020919091556104c3565b5060006104c3565b60006001600160e01b031982166380ac58cd60e01b148061167357506001600160e01b03198216635b5e139f60e01b145b806104c357506104c382611a8d565b60008061168e836113c2565b6001600160a01b0316141592915050565b610db284848484611ab2565b6116b58282610b6c565b61080f576116c281611b25565b6116cd836020611b37565b6040516020016116de929190612895565b60408051601f198184030181529082905262461bcd60e51b82526105f691600401612285565b61170e8282610b6c565b1561080f576000828152602081815260408083206001600160a01b0385168085529252808320805460ff1916905551339285917ff6391f5c32d9c69d2a47ea670b442974b53935d1edc7fd64eb21e047a839171b9190a45050565b6000610b65836001600160a01b038416611cd2565b600c5460ff166108955760405162461bcd60e51b815260206004820152601460248201527314185d5cd8589b194e881b9bdd081c185d5cd95960621b60448201526064016105f6565b600c5460ff16156108955760405162461bcd60e51b815260206004820152601060248201526f14185d5cd8589b194e881c185d5cd95960821b60448201526064016105f6565b6000826000018281548110611824576118246126d8565b9060005260206000200154905092915050565b6060600080856001600160a01b0316856040516118549190612904565b600060405180830381855af49150503d806000811461188f576040519150601f19603f3d011682016040523d82523d6000602084013e611894565b606091505b50915091506118a586838387611dc5565b9695505050505050565b60006118c3846001600160a01b0316611e3c565b156119ac57604051630a85bd0160e11b81526001600160a01b0385169063150b7a02906118fa903390899088908890600401612920565b6020604051808303816000875af1925050508015611935575060408051601f3d908101601f1916820190925261193291810190612953565b60015b611992573d808015611963576040519150601f19603f3d011682016040523d82523d6000602084013e611968565b606091505b50805160000361198a5760405162461bcd60e51b81526004016105f690612843565b805181602001fd5b6001600160e01b031916630a85bd0160e11b149050611027565b506001949350505050565b60008072184f03e93ff9f4daa797ed6e38ed64bf6a1f0160401b83106119f65772184f03e93ff9f4daa797ed6e38ed64bf6a1f0160401b830492506040015b6904ee2d6d415b85acef8160201b8310611a20576904ee2d6d415b85acef8160201b830492506020015b662386f26fc100008310611a3e57662386f26fc10000830492506010015b6305f5e1008310611a56576305f5e100830492506008015b6127108310611a6a57612710830492506004015b60648310611a7c576064830492506002015b600a83106104c35760010192915050565b60006001600160e01b03198216635a05180f60e01b14806104c357506104c382611e4b565b611abe84848484611e80565b600c5460ff1615610db25760405162461bcd60e51b815260206004820152602b60248201527f4552433732315061757361626c653a20746f6b656e207472616e73666572207760448201526a1a1a5b19481c185d5cd95960aa1b60648201526084016105f6565b60606104c36001600160a01b03831660145b60606000611b46836002612970565b611b519060026126c5565b6001600160401b03811115611b6857611b686124c2565b6040519080825280601f01601f191660200182016040528015611b92576020820181803683370190505b509050600360fc1b81600081518110611bad57611bad6126d8565b60200101906001600160f81b031916908160001a905350600f60fb1b81600181518110611bdc57611bdc6126d8565b60200101906001600160f81b031916908160001a9053506000611c00846002612970565b611c0b9060016126c5565b90505b6001811115611c83576f181899199a1a9b1b9c1cb0b131b232b360811b85600f1660108110611c3f57611c3f6126d8565b1a60f81b828281518110611c5557611c556126d8565b60200101906001600160f81b031916908160001a90535060049490941c93611c7c81612987565b9050611c0e565b508315610b655760405162461bcd60e51b815260206004820181905260248201527f537472696e67733a20686578206c656e67746820696e73756666696369656e7460448201526064016105f6565b60008181526001830160205260408120548015611dbb576000611cf6600183612720565b8554909150600090611d0a90600190612720565b9050818114611d6f576000866000018281548110611d2a57611d2a6126d8565b9060005260206000200154905080876000018481548110611d4d57611d4d6126d8565b6000918252602080832090910192909255918252600188019052604090208390555b8554869080611d8057611d8061299e565b6001900381819060005260206000200160009055905585600101600086815260200190815260200160002060009055600193505050506104c3565b60009150506104c3565b60608315611e32578251600003611e2b57611ddf85611e3c565b611e2b5760405162461bcd60e51b815260206004820152601d60248201527f416464726573733a2063616c6c20746f206e6f6e2d636f6e747261637400000060448201526064016105f6565b5081611027565b6110278383611fc0565b6001600160a01b03163b151590565b60006001600160e01b03198216637965db0b60e01b14806104c357506301ffc9a760e01b6001600160e01b03198316146104c3565b611e8c84848484611fea565b6001811115611efb5760405162461bcd60e51b815260206004820152603560248201527f455243373231456e756d657261626c653a20636f6e7365637574697665207472604482015274185b9cd9995c9cc81b9bdd081cdd5c1c1bdc9d1959605a1b60648201526084016105f6565b816001600160a01b038516611f5757611f5281600a80546000838152600b60205260408120829055600182018355919091527fc65a7bb8d6351c1cf70c95a316cc6a92839c986682d98bc35f958f4883f9d2a80155565b611f7a565b836001600160a01b0316856001600160a01b031614611f7a57611f7a8582612072565b6001600160a01b038416611f9657611f918161210f565b611fb9565b846001600160a01b0316846001600160a01b031614611fb957611fb984826121be565b5050505050565b815115611fd05781518083602001fd5b8060405162461bcd60e51b81526004016105f69190612285565b6001811115610db2576001600160a01b03841615612030576001600160a01b0384166000908152600560205260408120805483929061202a908490612720565b90915550505b6001600160a01b03831615610db2576001600160a01b038316600090815260056020526040812080548392906120679084906126c5565b909155505050505050565b6000600161207f84610a47565b6120899190612720565b6000838152600960205260409020549091508082146120dc576001600160a01b03841660009081526008602090815260408083208584528252808320548484528184208190558352600990915290208190555b5060009182526009602090815260408084208490556001600160a01b039094168352600881528383209183525290812055565b600a5460009061212190600190612720565b6000838152600b6020526040812054600a8054939450909284908110612149576121496126d8565b9060005260206000200154905080600a838154811061216a5761216a6126d8565b6000918252602080832090910192909255828152600b9091526040808220849055858252812055600a8054806121a2576121a261299e565b6001900381819060005260206000200160009055905550505050565b60006121c983610a47565b6001600160a01b039093166000908152600860209081526040808320868452825280832085905593825260099052919091209190915550565b6001600160e01b03198116811461097d57600080fd5b60006020828403121561222a57600080fd5b8135610b6581612202565b60005b83811015612250578181015183820152602001612238565b50506000910152565b60008151808452612271816020860160208601612235565b601f01601f19169290920160200192915050565b602081526000610b656020830184612259565b6000602082840312156122aa57600080fd5b5035919050565b6001600160a01b0391909116815260200190565b80356001600160a01b03811681146122dc57600080fd5b919050565b600080604083850312156122f457600080fd5b6122fd836122c5565b946020939093013593505050565b60008060006060848603121561232057600080fd5b612329846122c5565b9250612337602085016122c5565b9150604084013590509250925092565b6000806040838503121561235a57600080fd5b8235915061236a602084016122c5565b90509250929050565b60006020828403121561238557600080fd5b610b65826122c5565b600080604083850312156123a157600080fd5b50508035926020909101359150565b600080604083850312156123c357600080fd5b6123cc836122c5565b9150602083013580151581146123e157600080fd5b809150509250929050565b600080602083850312156123ff57600080fd5b82356001600160401b038082111561241657600080fd5b818501915085601f83011261242a57600080fd5b81358181111561243957600080fd5b8660208260051b850101111561244e57600080fd5b60209290920196919550909350505050565b6000602080830181845280855180835260408601915060408160051b870101925083870160005b828110156124b557603f198886030184526124a3858351612259565b94509285019290850190600101612487565b5092979650505050505050565b634e487b7160e01b600052604160045260246000fd5b600080600080608085870312156124ee57600080fd5b6124f7856122c5565b9350612505602086016122c5565b92506040850135915060608501356001600160401b038082111561252857600080fd5b818701915087601f83011261253c57600080fd5b81358181111561254e5761254e6124c2565b604051601f8201601f19908116603f01168101908382118183101715612576576125766124c2565b816040528281528a602084870101111561258f57600080fd5b82602086016020830137600060208483010152809550505050505092959194509250565b600080604083850312156125c657600080fd5b6125cf836122c5565b915061236a602084016122c5565b600181811c908216806125f157607f821691505b60208210810361261157634e487b7160e01b600052602260045260246000fd5b50919050565b6020808252602d908201527f4552433732313a2063616c6c6572206973206e6f7420746f6b656e206f776e6560408201526c1c881bdc88185c1c1c9bdd9959609a1b606082015260800190565b6020808252603d90820152600080516020612a3c83398151915260408201527f6d7573742068617665206d696e74657220726f6c6520746f206d696e74000000606082015260800190565b634e487b7160e01b600052601160045260246000fd5b808201808211156104c3576104c36126af565b634e487b7160e01b600052603260045260246000fd5b602080825260189082015277115490cdcc8c4e881a5b9d985b1a59081d1bdad95b88125160421b604082015260600190565b818103818111156104c3576104c36126af565b6000808335601e1984360301811261274a57600080fd5b8301803591506001600160401b0382111561276457600080fd5b60200191503681900382131561277957600080fd5b9250929050565b600060018201612792576127926126af565b5060010190565b600083516127ab818460208801612235565b8351908301906127bf818360208801612235565b01949350505050565b60208082526025908201527f4552433732313a207472616e736665722066726f6d20696e636f72726563742060408201526437bbb732b960d91b606082015260800190565b6020808252601c908201527b115490cdcc8c4e881d1bdad95b88185b1c9958591e481b5a5b9d195960221b604082015260600190565b60208082526032908201527f4552433732313a207472616e7366657220746f206e6f6e20455243373231526560408201527131b2b4bb32b91034b6b83632b6b2b73a32b960711b606082015260800190565b76020b1b1b2b9b9a1b7b73a3937b61d1030b1b1b7bab73a1604d1b8152600083516128c7816017850160208801612235565b7001034b99036b4b9b9b4b733903937b6329607d1b60179184019182015283516128f8816028840160208801612235565b01602801949350505050565b60008251612916818460208701612235565b9190910192915050565b6001600160a01b03858116825284166020820152604081018390526080606082018190526000906118a590830184612259565b60006020828403121561296557600080fd5b8151610b6581612202565b80820281158282048414176104c3576104c36126af565b600081612996576129966126af565b506000190190565b634e487b7160e01b600052603160045260246000fdfe65d7a28e3265b37a6474929f336521b332c1681b933f6cb9f3376673440d862a416464726573733a206c6f772d6c6576656c2064656c65676174652063616c6c206661696c65649f2df0fed2c77648de5860a4cc508cd0818c85b8b8a1ab4ceeef8d981c8956a6ddf252ad1be2c89b69c2b068fc378daa952ba7f163c4a11628f55a4df523b3ef4552433732315072657365744d696e7465725061757365724175746f49643a20a2646970667358221220cc5822854a593dd908acd4ee8d416304e052eb70703ca95a2fd1a4413b2a2b9c64736f6c63430008110033",
  "linkReferences": {},
  "deployedLinkReferences": {}
}