{
  "_format": "hh-sol-artifact-1",
  "contractName": "mortgagesynth",
  "sourceName": "contracts/protocol/mortgagesynth.sol",
  "abi": [
    {
      "inputs": [
        {
          "internalType": "string",
          "name": "name",
          "type": "string"
        },
        {
          "internalType": "string",
          "name": "symbol",
          "type": "string"
        }
      ],
      "stateMutability": "nonpayable",
      "type": "constructor"
    },
    {
      "anonymous": false,
      "inputs": [
        {
          "indexed": true,
          "internalType": "address",
          "name": "owner",
          "type": "address"
        },
        {
          "indexed": true,
          "internalType": "address",
          "name": "spender",
          "type": "address"
        },
        {
          "indexed": false,
          "internalType": "uint256",
          "name": "value",
          "type": "uint256"
        }
      ],
      "name": "Approval",
      "type": "event"
    },
    {
      "anonymous": false,
      "inputs": [
        {
          "indexed": true,
          "internalType": "bytes32",
          "name": "role",
          "type": "bytes32"
        },
        {
          "indexed": true,
          "internalType": "bytes32",
          "name": "previousAdminRole",
          "type": "bytes32"
        },
        {
          "indexed": true,
          "internalType": "bytes32",
          "name": "newAdminRole",
          "type": "bytes32"
        }
      ],
      "name": "RoleAdminChanged",
      "type": "event"
    },
    {
      "anonymous": false,
      "inputs": [
        {
          "indexed": true,
          "internalType": "bytes32",
          "name": "role",
          "type": "bytes32"
        },
        {
          "indexed": true,
          "internalType": "address",
          "name": "account",
          "type": "address"
        },
        {
          "indexed": true,
          "internalType": "address",
          "name": "sender",
          "type": "address"
        }
      ],
      "name": "RoleGranted",
      "type": "event"
    },
    {
      "anonymous": false,
      "inputs": [
        {
          "indexed": true,
          "internalType": "bytes32",
          "name": "role",
          "type": "bytes32"
        },
        {
          "indexed": true,
          "internalType": "address",
          "name": "account",
          "type": "address"
        },
        {
          "indexed": true,
          "internalType": "address",
          "name": "sender",
          "type": "address"
        }
      ],
      "name": "RoleRevoked",
      "type": "event"
    },
    {
      "anonymous": false,
      "inputs": [
        {
          "indexed": true,
          "internalType": "address",
          "name": "from",
          "type": "address"
        },
        {
          "indexed": true,
          "internalType": "address",
          "name": "to",
          "type": "address"
        },
        {
          "indexed": false,
          "internalType": "uint256",
          "name": "value",
          "type": "uint256"
        }
      ],
      "name": "Transfer",
      "type": "event"
    },
    {
      "inputs": [],
      "name": "ADMIN_ROLE",
      "outputs": [
        {
          "internalType": "bytes32",
          "name": "",
          "type": "bytes32"
        }
      ],
      "stateMutability": "view",
      "type": "function"
    },
    {
      "inputs": [],
      "name": "DEFAULT_ADMIN_ROLE",
      "outputs": [
        {
          "internalType": "bytes32",
          "name": "",
          "type": "bytes32"
        }
      ],
      "stateMutability": "view",
      "type": "function"
    },
    {
      "inputs": [
        {
          "internalType": "address",
          "name": "owner",
          "type": "address"
        },
        {
          "internalType": "address",
          "name": "spender",
          "type": "address"
        }
      ],
      "name": "allowance",
      "outputs": [
        {
          "internalType": "uint256",
          "name": "",
          "type": "uint256"
        }
      ],
      "stateMutability": "view",
      "type": "function"
    },
    {
      "inputs": [
        {
          "internalType": "address",
          "name": "spender",
          "type": "address"
        },
        {
          "internalType": "uint256",
          "name": "amount",
          "type": "uint256"
        }
      ],
      "name": "approve",
      "outputs": [
        {
          "internalType": "bool",
          "name": "",
          "type": "bool"
        }
      ],
      "stateMutability": "nonpayable",
      "type": "function"
    },
    {
      "inputs": [
        {
          "internalType": "address",
          "name": "account",
          "type": "address"
        }
      ],
      "name": "balanceOf",
      "outputs": [
        {
          "internalType": "uint256",
          "name": "",
          "type": "uint256"
        }
      ],
      "stateMutability": "view",
      "type": "function"
    },
    {
      "inputs": [
        {
          "internalType": "uint256",
          "name": "amount",
          "type": "uint256"
        }
      ],
      "name": "burn",
      "outputs": [],
      "stateMutability": "nonpayable",
      "type": "function"
    },
    {
      "inputs": [
        {
          "internalType": "address",
          "name": "account",
          "type": "address"
        },
        {
          "internalType": "uint256",
          "name": "amount",
          "type": "uint256"
        }
      ],
      "name": "burnFrom",
      "outputs": [],
      "stateMutability": "nonpayable",
      "type": "function"
    },
    {
      "inputs": [],
      "name": "decimals",
      "outputs": [
        {
          "internalType": "uint8",
          "name": "",
          "type": "uint8"
        }
      ],
      "stateMutability": "view",
      "type": "function"
    },
    {
      "inputs": [
        {
          "internalType": "address",
          "name": "spender",
          "type": "address"
        },
        {
          "internalType": "uint256",
          "name": "subtractedValue",
          "type": "uint256"
        }
      ],
      "name": "decreaseAllowance",
      "outputs": [
        {
          "internalType": "bool",
          "name": "",
          "type": "bool"
        }
      ],
      "stateMutability": "nonpayable",
      "type": "function"
    },
    {
      "inputs": [
        {
          "internalType": "bytes32",
          "name": "role",
          "type": "bytes32"
        }
      ],
      "name": "getRoleAdmin",
      "outputs": [
        {
          "internalType": "bytes32",
          "name": "",
          "type": "bytes32"
        }
      ],
      "stateMutability": "view",
      "type": "function"
    },
    {
      "inputs": [
        {
          "internalType": "bytes32",
          "name": "role",
          "type": "bytes32"
        },
        {
          "internalType": "address",
          "name": "account",
          "type": "address"
        }
      ],
      "name": "grantRole",
      "outputs": [],
      "stateMutability": "nonpayable",
      "type": "function"
    },
    {
      "inputs": [
        {
          "internalType": "bytes32",
          "name": "role",
          "type": "bytes32"
        },
        {
          "internalType": "address",
          "name": "account",
          "type": "address"
        }
      ],
      "name": "hasRole",
      "outputs": [
        {
          "internalType": "bool",
          "name": "",
          "type": "bool"
        }
      ],
      "stateMutability": "view",
      "type": "function"
    },
    {
      "inputs": [
        {
          "internalType": "address",
          "name": "spender",
          "type": "address"
        },
        {
          "internalType": "uint256",
          "name": "addedValue",
          "type": "uint256"
        }
      ],
      "name": "increaseAllowance",
      "outputs": [
        {
          "internalType": "bool",
          "name": "",
          "type": "bool"
        }
      ],
      "stateMutability": "nonpayable",
      "type": "function"
    },
    {
      "inputs": [
        {
          "internalType": "address",
          "name": "recipient",
          "type": "address"
        },
        {
          "internalType": "uint256",
          "name": "amount",
          "type": "uint256"
        }
      ],
      "name": "mint",
      "outputs": [],
      "stateMutability": "nonpayable",
      "type": "function"
    },
    {
      "inputs": [],
      "name": "name",
      "outputs": [
        {
          "internalType": "string",
          "name": "",
          "type": "string"
        }
      ],
      "stateMutability": "view",
      "type": "function"
    },
    {
      "inputs": [
        {
          "internalType": "bytes32",
          "name": "role",
          "type": "bytes32"
        },
        {
          "internalType": "address",
          "name": "account",
          "type": "address"
        }
      ],
      "name": "renounceRole",
      "outputs": [],
      "stateMutability": "nonpayable",
      "type": "function"
    },
    {
      "inputs": [
        {
          "internalType": "bytes32",
          "name": "role",
          "type": "bytes32"
        },
        {
          "internalType": "address",
          "name": "account",
          "type": "address"
        }
      ],
      "name": "revokeRole",
      "outputs": [],
      "stateMutability": "nonpayable",
      "type": "function"
    },
    {
      "inputs": [
        {
          "internalType": "bytes4",
          "name": "interfaceId",
          "type": "bytes4"
        }
      ],
      "name": "supportsInterface",
      "outputs": [
        {
          "internalType": "bool",
          "name": "",
          "type": "bool"
        }
      ],
      "stateMutability": "view",
      "type": "function"
    },
    {
      "inputs": [],
      "name": "symbol",
      "outputs": [
        {
          "internalType": "string",
          "name": "",
          "type": "string"
        }
      ],
      "stateMutability": "view",
      "type": "function"
    },
    {
      "inputs": [],
      "name": "totalSupply",
      "outputs": [
        {
          "internalType": "uint256",
          "name": "",
          "type": "uint256"
        }
      ],
      "stateMutability": "view",
      "type": "function"
    },
    {
      "inputs": [
        {
          "internalType": "address",
          "name": "to",
          "type": "address"
        },
        {
          "internalType": "uint256",
          "name": "amount",
          "type": "uint256"
        }
      ],
      "name": "transfer",
      "outputs": [
        {
          "internalType": "bool",
          "name": "",
          "type": "bool"
        }
      ],
      "stateMutability": "nonpayable",
      "type": "function"
    },
    {
      "inputs": [
        {
          "internalType": "address",
          "name": "from",
          "type": "address"
        },
        {
          "internalType": "address",
          "name": "to",
          "type": "address"
        },
        {
          "internalType": "uint256",
          "name": "amount",
          "type": "uint256"
        }
      ],
      "name": "transferFrom",
      "outputs": [
        {
          "internalType": "bool",
          "name": "",
          "type": "bool"
        }
      ],
      "stateMutability": "nonpayable",
      "type": "function"
    }
  ],
  "bytecode": "0x60806040523480156200001157600080fd5b50604051620016233803806200162383398101604081905262000034916200026b565b8181600362000044838262000364565b50600462000053828262000364565b50505062000080600080516020620016038339815191526200007a620000a360201b60201c565b620000a7565b6200009b6000805160206200160383398151915280620000b7565b505062000430565b3390565b620000b3828262000102565b5050565b600082815260056020526040808220600101805490849055905190918391839186917fbd79b86ffe0ab8e8776151514217cd7cacd52c909f66475c3af44e129f0b00ff9190a4505050565b60008281526005602090815260408083206001600160a01b038516845290915290205460ff16620000b35760008281526005602090815260408083206001600160a01b03851684529091529020805460ff19166001179055620001623390565b6001600160a01b0316816001600160a01b0316837f2f8788117e7eff1d82e926ec794901d17c78024a50270940304540a733656f0d60405160405180910390a45050565b634e487b7160e01b600052604160045260246000fd5b600082601f830112620001ce57600080fd5b81516001600160401b0380821115620001eb57620001eb620001a6565b604051601f8301601f19908116603f01168101908282118183101715620002165762000216620001a6565b816040528381526020925086838588010111156200023357600080fd5b600091505b8382101562000257578582018301518183018401529082019062000238565b600093810190920192909252949350505050565b600080604083850312156200027f57600080fd5b82516001600160401b03808211156200029757600080fd5b620002a586838701620001bc565b93506020850151915080821115620002bc57600080fd5b50620002cb85828601620001bc565b9150509250929050565b600181811c90821680620002ea57607f821691505b6020821081036200030b57634e487b7160e01b600052602260045260246000fd5b50919050565b601f8211156200035f57600081815260208120601f850160051c810160208610156200033a5750805b601f850160051c820191505b818110156200035b5782815560010162000346565b5050505b505050565b81516001600160401b03811115620003805762000380620001a6565b6200039881620003918454620002d5565b8462000311565b602080601f831160018114620003d05760008415620003b75750858301515b600019600386901b1c1916600185901b1785556200035b565b600085815260208120601f198616915b828110156200040157888601518255948401946001909101908401620003e0565b5085821015620004205787850151600019600388901b60f8161c191681555b5050505050600190811b01905550565b6111c380620004406000396000f3fe608060405234801561001057600080fd5b50600436106101125760003560e01c806301ffc9a71461011757806306fdde031461013f578063095ea7b31461015457806318160ddd1461016757806323b872dd14610179578063248a9ca31461018c5780632f2ff15d1461019f578063313ce567146101b457806336568abe146101c357806339509351146101d657806340c10f19146101e957806342966c68146101fc57806370a082311461020f57806375b238fc1461023857806379cc67901461025f57806391d148541461027257806395d89b4114610285578063a217fddf1461028d578063a457c2d714610295578063a9059cbb146102a8578063d547741f146102bb578063dd62ed3e146102ce575b600080fd5b61012a610125366004610ea1565b6102e1565b60405190151581526020015b60405180910390f35b610147610318565b6040516101369190610eef565b61012a610162366004610f3e565b6103aa565b6002545b604051908152602001610136565b61012a610187366004610f68565b6103c2565b61016b61019a366004610fa4565b6103e6565b6101b26101ad366004610fbd565b6103fb565b005b60405160128152602001610136565b6101b26101d1366004610fbd565b61041c565b61012a6101e4366004610f3e565b61049f565b6101b26101f7366004610f3e565b6104c1565b6101b261020a366004610fa4565b6104f5565b61016b61021d366004610fe9565b6001600160a01b031660009081526020819052604090205490565b61016b7fdf8b4c520ffe197c5343c6f5aec59570151ef9a492f2c624fd45ddde6135ec4281565b6101b261026d366004610f3e565b610502565b61012a610280366004610fbd565b610595565b6101476105c0565b61016b600081565b61012a6102a3366004610f3e565b6105cf565b61012a6102b6366004610f3e565b61064a565b6101b26102c9366004610fbd565b610658565b61016b6102dc366004611004565b610674565b60006001600160e01b03198216637965db0b60e01b148061031257506301ffc9a760e01b6001600160e01b03198316145b92915050565b6060600380546103279061102e565b80601f01602080910402602001604051908101604052809291908181526020018280546103539061102e565b80156103a05780601f10610375576101008083540402835291602001916103a0565b820191906000526020600020905b81548152906001019060200180831161038357829003601f168201915b5050505050905090565b6000336103b881858561069f565b5060019392505050565b6000336103d08582856107c3565b6103db85858561083d565b506001949350505050565b60009081526005602052604090206001015490565b610404826103e6565b61040d816109cf565b61041783836109d9565b505050565b6001600160a01b03811633146104915760405162461bcd60e51b815260206004820152602f60248201527f416363657373436f6e74726f6c3a2063616e206f6e6c792072656e6f756e636560448201526e103937b632b9903337b91039b2b63360891b60648201526084015b60405180910390fd5b61049b8282610a5f565b5050565b6000336103b88185856104b28383610674565b6104bc919061107e565b61069f565b7fdf8b4c520ffe197c5343c6f5aec59570151ef9a492f2c624fd45ddde6135ec426104eb816109cf565b6104178383610ac6565b6104ff3382610b73565b50565b60008161050f8433610674565b6105199190611091565b10156105675760405162461bcd60e51b815260206004820152601d60248201527f6275726e20616d6f756e74206578636565647320616c6c6f77616e63650000006044820152606401610488565b6000816105748433610674565b61057e9190611091565b905061058b83338361069f565b6104178383610b73565b60009182526005602090815260408084206001600160a01b0393909316845291905290205460ff1690565b6060600480546103279061102e565b600033816105dd8286610674565b90508381101561063d5760405162461bcd60e51b815260206004820152602560248201527f45524332303a2064656372656173656420616c6c6f77616e63652062656c6f77604482015264207a65726f60d81b6064820152608401610488565b6103db828686840361069f565b6000336103b881858561083d565b610661826103e6565b61066a816109cf565b6104178383610a5f565b6001600160a01b03918216600090815260016020908152604080832093909416825291909152205490565b6001600160a01b0383166107015760405162461bcd60e51b8152602060048201526024808201527f45524332303a20617070726f76652066726f6d20746865207a65726f206164646044820152637265737360e01b6064820152608401610488565b6001600160a01b0382166107625760405162461bcd60e51b815260206004820152602260248201527f45524332303a20617070726f766520746f20746865207a65726f206164647265604482015261737360f01b6064820152608401610488565b6001600160a01b0383811660008181526001602090815260408083209487168084529482529182902085905590518481527f8c5be1e5ebec7d5bd14f71427d1e84f3dd0314c0f7b2291e5b200ac8c7c3b925910160405180910390a3505050565b60006107cf8484610674565b90506000198114610837578181101561082a5760405162461bcd60e51b815260206004820152601d60248201527f45524332303a20696e73756666696369656e7420616c6c6f77616e63650000006044820152606401610488565b610837848484840361069f565b50505050565b6001600160a01b0383166108a15760405162461bcd60e51b815260206004820152602560248201527f45524332303a207472616e736665722066726f6d20746865207a65726f206164604482015264647265737360d81b6064820152608401610488565b6001600160a01b0382166109035760405162461bcd60e51b815260206004820152602360248201527f45524332303a207472616e7366657220746f20746865207a65726f206164647260448201526265737360e81b6064820152608401610488565b6001600160a01b0383166000908152602081905260409020548181101561097b5760405162461bcd60e51b815260206004820152602660248201527f45524332303a207472616e7366657220616d6f756e7420657863656564732062604482015265616c616e636560d01b6064820152608401610488565b6001600160a01b038481166000818152602081815260408083208787039055938716808352918490208054870190559251858152909260008051602061116e833981519152910160405180910390a3610837565b6104ff8133610c93565b6109e38282610595565b61049b5760008281526005602090815260408083206001600160a01b03851684529091529020805460ff19166001179055610a1b3390565b6001600160a01b0316816001600160a01b0316837f2f8788117e7eff1d82e926ec794901d17c78024a50270940304540a733656f0d60405160405180910390a45050565b610a698282610595565b1561049b5760008281526005602090815260408083206001600160a01b0385168085529252808320805460ff1916905551339285917ff6391f5c32d9c69d2a47ea670b442974b53935d1edc7fd64eb21e047a839171b9190a45050565b6001600160a01b038216610b1c5760405162461bcd60e51b815260206004820152601f60248201527f45524332303a206d696e7420746f20746865207a65726f2061646472657373006044820152606401610488565b8060026000828254610b2e919061107e565b90915550506001600160a01b0382166000818152602081815260408083208054860190555184815260008051602061116e833981519152910160405180910390a35050565b6001600160a01b038216610bd35760405162461bcd60e51b815260206004820152602160248201527f45524332303a206275726e2066726f6d20746865207a65726f206164647265736044820152607360f81b6064820152608401610488565b6001600160a01b03821660009081526020819052604090205481811015610c475760405162461bcd60e51b815260206004820152602260248201527f45524332303a206275726e20616d6f756e7420657863656564732062616c616e604482015261636560f01b6064820152608401610488565b6001600160a01b03831660008181526020818152604080832086860390556002805487900390555185815291929160008051602061116e833981519152910160405180910390a3505050565b610c9d8282610595565b61049b57610caa81610cec565b610cb5836020610cfe565b604051602001610cc69291906110a4565b60408051601f198184030181529082905262461bcd60e51b825261048891600401610eef565b60606103126001600160a01b03831660145b60606000610d0d836002611113565b610d1890600261107e565b67ffffffffffffffff811115610d3057610d3061112a565b6040519080825280601f01601f191660200182016040528015610d5a576020820181803683370190505b509050600360fc1b81600081518110610d7557610d75611140565b60200101906001600160f81b031916908160001a905350600f60fb1b81600181518110610da457610da4611140565b60200101906001600160f81b031916908160001a9053506000610dc8846002611113565b610dd390600161107e565b90505b6001811115610e4b576f181899199a1a9b1b9c1cb0b131b232b360811b85600f1660108110610e0757610e07611140565b1a60f81b828281518110610e1d57610e1d611140565b60200101906001600160f81b031916908160001a90535060049490941c93610e4481611156565b9050610dd6565b508315610e9a5760405162461bcd60e51b815260206004820181905260248201527f537472696e67733a20686578206c656e67746820696e73756666696369656e746044820152606401610488565b9392505050565b600060208284031215610eb357600080fd5b81356001600160e01b031981168114610e9a57600080fd5b60005b83811015610ee6578181015183820152602001610ece565b50506000910152565b6020815260008251806020840152610f0e816040850160208701610ecb565b601f01601f19169190910160400192915050565b80356001600160a01b0381168114610f3957600080fd5b919050565b60008060408385031215610f5157600080fd5b610f5a83610f22565b946020939093013593505050565b600080600060608486031215610f7d57600080fd5b610f8684610f22565b9250610f9460208501610f22565b9150604084013590509250925092565b600060208284031215610fb657600080fd5b5035919050565b60008060408385031215610fd057600080fd5b82359150610fe060208401610f22565b90509250929050565b600060208284031215610ffb57600080fd5b610e9a82610f22565b6000806040838503121561101757600080fd5b61102083610f22565b9150610fe060208401610f22565b600181811c9082168061104257607f821691505b60208210810361106257634e487b7160e01b600052602260045260246000fd5b50919050565b634e487b7160e01b600052601160045260246000fd5b8082018082111561031257610312611068565b8181038181111561031257610312611068565b76020b1b1b2b9b9a1b7b73a3937b61d1030b1b1b7bab73a1604d1b8152600083516110d6816017850160208801610ecb565b7001034b99036b4b9b9b4b733903937b6329607d1b6017918401918201528351611107816028840160208801610ecb565b01602801949350505050565b808202811582820484141761031257610312611068565b634e487b7160e01b600052604160045260246000fd5b634e487b7160e01b600052603260045260246000fd5b60008161116557611165611068565b50600019019056feddf252ad1be2c89b69c2b068fc378daa952ba7f163c4a11628f55a4df523b3efa2646970667358221220b8fca0756c4a42ba8c392966f1573bf408315d2b6291173090923cb14e4e24ef64736f6c63430008110033df8b4c520ffe197c5343c6f5aec59570151ef9a492f2c624fd45ddde6135ec42",
  "linkReferences": {},
  "deployedLinkReferences": {}
}